:020000040800F2
:10000000F8070020A1010008BF150008B715000877
:10001000BB15000831140008B72A000800000000D2
:10002000000000000000000000000000C11C0008EB
:100030003514000800000000731B0008D51D0008DF
:10004000BB010008BB010008BB010008BB010008A0
:10005000BB010008BB010008BB010008BB01000890
:10006000BB010008BB010008BB010008BB01000880
:10007000BB010008BB010008BB010008BB01000870
:10008000BB010008BB010008BB010008BB01000860
:10009000BB010008BB010008BB010008BB01000850
:1000A000BB01000879200008BB010008BB01000863
:1000B000F9210008A1220008BB010008BB010008CB
:1000C000BB010008BB010008BB010008BB01000820
:1000D000BB01000895280008BB010008BB0100080F
:1000E000BB010008BB010008BB01000800F002F8DA
:1000F00000F047F80AA090E8000C82448344AAF17B
:100100000107DA4501D100F03CF8AFF2090EBAE878
:100110000F0013F0010F18BFFB1A43F0010318473B
:100120006455000084550000103A24BF78C878C197
:10013000FAD8520724BF30C830C144BF04680C60ED
:10014000704700000023002400250026103A28BF35
:1001500078C1FBD8520728BF30C148BF0B60704739
:10016000662903F04E82002070471FB500F0C4FAE4
:1001700004000020002102F001FEE0601FBD10B568
:1001800010BD00F0D1FB1146FFF7EFFF02F002FDBA
:1001900000F0EFFB03B4FFF7F2FF03BC02F0A1FC99
:1001A0000948804709480047FEE7FEE7FEE7FEE70B
:1001B000FEE7FEE7FEE7FEE7FEE7FEE70448054947
:1001C000054A064B70470000D91D0008ED000008E5
:1001D000F8010020F8070020F8030020F8030020B1
:1001E000704700000FB4044910B503AA029800F04C
:1001F00071FA10BC5DF814FB180000202DE9F041E5
:100200000E460446002020622046E168884730B34D
:10021000252805D0D4E901219047206A401CF2E747
:10022000E168204600278847050018D0A5F1410065
:10023000192802D820354FF4006732462946204657
:100240002760FFF78DFF40B1012804D0F61D26F08E
:1002500007060836D8E7361DD6E72846DAE7206ACB
:10026000BDE8F0814FF0000200B513469446964673
:10027000203922BFA0E80C50A0E80C50B1F12001B9
:10028000BFF4F7AF090728BFA0E80C5048BF0CC067
:100290005DF804EB890028BF40F8042B08BF7047C5
:1002A00048BF20F8022B11F0804F18BF00F8012B37
:1002B0007047704770477047704770472DE9FF4F90
:1002C0000C461E464FF0FF378BB0D2E90001DDF837
:1002D00060800A908A46C1F30A5505B93D4600215F
:1002E00008464FF00000BAF1000F00F4400005DAB4
:1002F00000EB80004FF4400101EA50004FEA9059B2
:10030000B9F1010F00DDB9460A9850EA4A000ED053
:1003100044F61050A5F2FF3545432F14B8F1000FF5
:100320001ED07542291E1EDDC9F100021CE0B8F185
:10033000010F4FF0000001D0302103E0F24305E04F
:100340002154401CB042FBDB3046002200212154E6
:100350000B99C1F80880C1E900200FB0BDE8F08F0B
:10036000BD1B6D1CDEE74A4600DA694206A800F0B4
:1003700065FA06AB93E8070003AB83E80700504635
:100380000A9900F03DFB8DE80700A0F500501F38EA
:1003900000900398002D09DD42F21F014A460844EF
:1003A00003A90390684600F09CFD08E0A0F500500A
:1003B0004A461F3803A90390684600F0A6FD8DE861
:1003C00007000004000C03D04FF0FF30410800E0AC
:1003D0001046B8F1000F03D00022009215461EE02F
:1003E000751E05D400F08CF9303262556D1EF9D5BA
:1003F000B3460122084302D000227F1C04E020788B
:10040000302801D100227F1E002A099786D01DE0E6
:10041000112D07DA00F074F9303262556D1C50EA84
:100420000102F5D1084302D00098C8B10EE00021C6
:10043000681E05E0235C625C63542254401E491C24
:100440008142F7DBAB46A81B401E0990002004F850
:100450000B000B98099AC0F80880C0E9002B7CE7D4
:1004600011264FF0000859E72DE9F04F8846044661
:10047000D21D22F0070191B0D1E90001CDE90A01B6
:1004800002F01BFB02460B98C00F01D02D2007E0A5
:100490002068810701D52B2002E0202101EAC0005D
:1004A000032A099001D0072A05DB0346414620466E
:1004B00000F084F90BE12078800601D5E06900E0C6
:1004C0000620B8F1650F814606D0B8F1660F18D046
:1004D000B8F1670F70D131E00020B9F1110F009031
:1004E00001DB112301E009F101030AAA01A90CA80B
:1004F000FFF7E4FEDDE90C70002609F101058346F3
:1005000047E001204B4600904FF000470AAA01A99E
:100510000CA8FFF7D3FEDDE90DB00C995D4600266F
:1005200010B909F101000D18B9EB050003D4C0F1B1
:10053000FF3609F10105A5EB09002BE0B9F1010F28
:1005400001DA4FF001090020B9F1110F009048467F
:1005500001DD112300E003460AAA01A90CA8FFF758
:10056000ADFEDDE90C704D4600268346207800077D
:100570000AD4AB4500DA5D4601A8012D04DD41191E
:1005800011F8011C302907D04F4502DA17F1040F8A
:1005900004DA012082460FE06D1EEEE7002F02DC38
:1005A000ED1B3E4403E0781CA84200DD7D1CB81B17
:1005B00000F1010A4FF000472078000703D4AA4554
:1005C00001DB4FF0FF3A0021B7F1004F0DF1430876
:1005D0008DF8431024D002202B23002F01DA7F4214
:1005E0002D230A21021EA0F1010000DC5FB197FB60
:1005F000F1FC97FBF1F201FB1C7C17460CF1300C6F
:1006000008F801CDEEE7A8F1010003702188090583
:1006100001D5452100E06521A0F1010800F8011C89
:1006200009980FA9A1EB0807FF1D00B1012041198E
:1006300001EBEA70A1693844081A401EA0612078D5
:10064000C00602D42046AFF30080099828B1D4E94F
:1006500001219047206A401C20622078C00622D5E4
:100660002046AFF300801EE0002E04DBB34502DD20
:1006700001A8805D00E03020D4E901219047206A84
:10068000401C2062761CAAF101005FEA000A0AD130
:1006900000F032F8C0680168405CD4E9012190475D
:1006A000206A401C2062281EA5F10105DCDC07E061
:1006B000D4E9012118F8010B9047206A401C206200
:1006C000381EA7F10107F3DC2046AFF300800320BA
:1006D00011B043E6074B70B50D467B4400F05BF864
:1006E0000446284600F018F910B14FF0FF3070BDF5
:1006F000204670BD9B24000000487047B8010020D0
:1007000030B5B0F10A024FEA900E71F100034EEAE3
:10071000817EB0EB0E0061EB91014FEA101E4EEAB4
:10072000017E10EB0E0041EB11114FEA102E4EEA44
:10073000016E10EB0E0041EB11214FEA104E4EEA14
:10074000014E10EB0E0041EB1141401841F1000148
:100750004FEAD00040EA41704FEAD10110EB80052A
:100760004FEA810444EA907444EB01046D1944EBB0
:100770000404521BA3414FF0000348BF0A3200D5C6
:1007800030BD401C41F1000130BD000001694A1C30
:1007900002610878704700B58FB0CDE901310021C2
:1007A000059105497944CDE9031011466846FFF7E4
:1007B00025FD0FB000BD0000E5FFFFFF2DE9F04172
:1007C0001F46044603260168072A01F4006004DB83
:1007D00008B116A505E016A503E008B115A500E0CF
:1007E00015A521F010002060A069C01EA0610FB106
:1007F000401EA0612046AFF300804FB1D4E9012133
:1008000038469047206A401C2062C01C206206E0E7
:10081000206AFAE7D4E9012115F8010B9047761E0A
:10082000F8D22046AFF30080BDE8F0814E414E0083
:100830006E616E00494E4600696E66002DE9F04714
:10084000814616468AB0334878440DC88DE80D00BD
:1008500030487844801C03AC0DC884E80D0041F694
:100860009B300844372190FBF1F290FBF1F5A5F1A4
:10087000800501FB12041B3C02D56442012000E00C
:100880000020DFF890A080460027FA44AAF1BE0AB3
:100890000DE0E00709D03246684607EB47010AEB56
:1008A000810100F032FB8DE8070064107F1C002CF2
:1008B000EFD1184F7F44AC3F18E0E80714D007EBA6
:1008C00004100DF1180A90E80E008AE80E00C068C6
:1008D000F04201D198190890324606A903A800F009
:1008E00014FB03AB83E807006D10641C002DE4D1FA
:1008F00032466946B8F1000F03A802D000F0F1FAC1
:1009000001E000F002FBC9E90001C9F808200AB0C3
:10091000BDE8F087204E0000007B00F080007047AB
:1009200000487047980100207546FFF7F9FFAE4672
:1009300005006946534620F00700854618B020B5EB
:10094000FFF73CFCBDE820404FF000064FF00007E9
:100950004FF000084FF0000B21F00701AC46ACE867
:10096000C009ACE8C009ACE8C009ACE8C0098D46D4
:1009700070470446AFF300802046FFF70BFC0000F1
:100980004FF0013C50F8042B51F8043B9A4221D11E
:10099000A2EB0C03934313EACC1317D150F8042BAA
:1009A00051F8043B9A4215D1A2EB0C03934313EA8E
:1009B000CC130BD150F8042B51F8043B9A4209D1C7
:1009C000A2EB0C03934313EACC13DBD04FF00000EF
:1009D000704700BFD01A01BAB1FA81F101F01801D5
:1009E00022FA01F0CB40C1F12001DBB2C0B2C01A43
:1009F0002CFA01F3D11A914311EAC311E6D17047E1
:100A00005FEA400C08BF91F0000F4FEA8C234FEAD9
:100A1000C12243EA51514FEA1C5018BF00F5F04083
:100A20004FEA300018BF41F000415FEA6C5C00F013
:100A30002980BCF1FF3F08BF40F080407047130C95
:100A400006BF12044FF0100C4FF0000C130E04BF41
:100A500012020CF1080C130F04BF12010CF1040C6C
:100A6000930F04BF92000CF1020CD30F04BF52008D
:100A70000CF1010C11464FF00002A0F11F00A0EB99
:100A80000C00704711F0004F08BF704731F0004173
:100A90003FF4D5AF0B0C06BF09044FF0100C4FF01C
:100AA000000C0B0E04BF09020CF1080C0B0F04BF65
:100AB00009010CF1040C8B0F04BF89000CF1020C2E
:100AC000CB0F04BF49000CF1010CCCF12003A0EBCB
:100AD0000C0022FA03F302FA0CF241EA030100F1DE
:100AE0000100704720F07F4C80EA030023F07F472D
:100AF000ACEB070303F57C5300F0004003F1FF0368
:100B00002DE980494FEA154B09B44FEA144325EA11
:100B10000B4E24EA03480FF2042606EB132749087C
:100B20003E785FEA320203FB0667C7F5000707FB62
:100B300006F64FEA54374FEAD64606F1020607FB9F
:100B4000066CCCF1005C4FEA1C472CEA074C07FB13
:100B500006F40CFB06F504EB15464FEA961634BF77
:100B600000204FF000404FEAD13706FB07FC4FEA68
:100B70001C4C0CFB0BF7D21B03FB0CF761EB0701C2
:100B80000CFB0EF7B0EB074072EB17420CFB08F7BB
:100B900034BFA2EB0742B2EB074261EB17414FEAC9
:100BA0000C444FEA910706FB07FC4FEA1C4C0CFB78
:100BB0000BF7B0EBC74072EB573203FB0CF734BFB7
:100BC000A2EBC742B2EBC74261EB57310CFB0EF709
:100BD000B0EBC70072EB57720CFB08F734BFA2EB07
:100BE000C702B2EBC70261EB5771039F4FEA816105
:100BF00041EA921104EBCC044FEAD1374FEA82620A
:100C000006FB07FC42EA90124FEA80604FEA1C4C58
:100C10000CFB0BF7D21B03FB0CF761EB07010CFB82
:100C20000EF7B0EB074072EB17420CFB08F734BF2E
:100C3000A2EB0742B2EB074261EB17414FEA8C553A
:100C40004FEA910704EB9C2406FB07FC4FEA1C4C7F
:100C50000CFB0BF7B0EBC74072EB573203FB0CF702
:100C600034BFA2EBC742B2EBC74261EB57310CFB7A
:100C70000EF7B0EBC70072EB57720CFB08F734BFEE
:100C8000A2EBC702B2EBC70261EB577115EB4C2523
:100C90004FEA816141EA92114FEA82624FEAD1370D
:100CA00042EA901206FB07FC44F100044FEA806020
:100CB0004FEA1C4C0CFB0BF7D21B03FB0CF761EB50
:100CC00007010CFB0EF7B0EB074072EB17420CFB71
:100CD00008F734BFA2EB0742B2EB074261EB1741C2
:100CE00015EB1C154FEA813141EA92414FEA8232FD
:100CF00042EA90424FEA80304FEA0C7644F1000419
:100D000048EA03434EEA0B484FF0000EB2EB080CE2
:100D100071EB030724BF624639464EEB0E0E4FF0CF
:100D2000000B0018524149414BEB0B0BB2EB080C86
:100D300071EB03077BF1000B24BF624639464EEB93
:100D40000E0E4FF0000B0018524149414BEB0B0BBC
:100D5000B2EB080C71EB03077BF1000B24BF62467A
:100D600039464EEB0E0E51EA020718BF46F0010657
:100D700016EB0E7655F1000254F1000103D5BDE8E3
:100D80008901BDE80088BDE88901BDE80048B619C1
:100D9000524141EB0101A3F10103704780807F7E46
:100DA0007D7C7B7A797877767675747372717170E1
:100DB0006F6E6E6D6C6C6B6A6A6968686766666593
:100DC0006464636362616160605F5F5E5E5D5D5C21
:100DD0005C5B5B5A5A595958585757565655555592
:100DE0005454535352525251515050504F4F4F4EF2
:100DF0004E4D4D4D4C4C4C4B4B4B4A4A4A49494940
:100E00004848484747474746464645454544444481
:100E1000444343434342424242414141002B26D492
:100E2000770021D01CB54FEA370703B44FF010000C
:100E30004FF010014FF000000FBCBDE810400BF167
:100E4000010BBBF1010F08BF5FEA170722BF12F1C8
:100E5000010211F101014FF0004143F1000300F0E4
:100E6000004043EA00007047F9D35708DAE746EA42
:100E7000064613F1400F4FEA16461FDD13F1200F0F
:100E8000DFBF16430A46002120335B42C8D0C3F1BE
:100E9000200746EA064602FA07F74FEA164646EAF0
:100EA0000706C3F1200722FA03F201FA07F721FA35
:100EB00003F14FF0000342EA0702B1E746EA0206F7
:100EC00046EA06464FEA164646EA0106BCBF46EA2F
:100ED0000646360C4FF000034FF000024FF00001C1
:100EE0009EE72DE9C048934630B491E8380007C822
:100EF00031EA400C48BF34EA430C03D5FFF7F2FD5A
:100F0000FFF78CFFF0BCBDE800882DE9C048934690
:100F100030B491E8380007C810F0804F08BF13F0D4
:100F2000804F03D100F005F8FFF778FFF0BCBDE873
:100F3000008820F07F4780EA030023F07F4C07EB16
:100F40000C03A3F57C5300F00040A3F1FE0392F0E4
:100F5000000F00F0B38095F0000F00F077802DE9CE
:100F600001494FEA11404FEA144621EA004800FBCC
:100F700006FC24EA064708FB06F607FB08F800FB18
:100F800007F718EB06484CEB164C4FEA124B18EBE0
:100F900007484FEA15464CEB174022EA0B4E0BFB75
:100FA00006FC25EA06470EFB06F607FB0EFE0BFBCA
:100FB00007F71EEB064E4CEB164C4FF000061EEBEF
:100FC000074E4CEB174B18EB0B0840F1000018EBE9
:100FD0000E0B58EB000840F100008F1A4FF0000193
:100FE0003CBFC943661B14BFB5EB040C00213CBFDA
:100FF000C943F61B4FEA17444EEA8E0E27EA044512
:101000004FEA1C4704FB07622CEA074C05FB07F775
:101010000CFB05F604FB0CFC16EB074642EB1742F3
:1010200016EB0C4642EB1C421BEB060658EB020289
:10103000414146EA9E0601D5BDE80189B6195241F3
:1010400041EB0101A3F10103BDE801894FEA144519
:101050004FEA114724EA054621EA074C05FB07F44D
:1010600006FB07F70CFB06F105FB0CFC11EB074137
:1010700044EB17444FEA124711EB0C4144EB1C447C
:1010800022EA074C05FB07F206FB07F70CFB06F606
:1010900005FB0CFC16EB074642EB174216EB0C4621
:1010A00042EB1C456A1854F1000148BF7047B6195D
:1010B000524141EB0101A3F10103704795F0000F8C
:1010C00037D04FEA11424FEA144721EA024624EA98
:1010D000074C02FB07F106FB07F70CFB06F402FBCB
:1010E0000CFC14EB074441EB17414FEA154714EB96
:1010F0000C4441EB1C4125EA074C02FB07F506FBBB
:1011000007F70CFB06F602FB0CFC16EB074645EB5B
:10111000174516EB0C4645EB1C42121951F1000124
:1011200048BF7047B619524141EB0101A3F10103D9
:1011300070474FEA14454FEA114724EA054621EA71
:10114000074C05FB07F106FB07F70CFB06F24FF017
:10115000000605FB0CFC12EB074241EB174112EBBA
:101160000C4251EB1C4148BF7047921841EB010102
:10117000A3F10103704721B1826842F0010282604D
:1011800003E0826822F001028260704710B50446D5
:101190001248844208D10121401500F017FD0021BA
:1011A000601500F013FD17E00D48844208D10121BD
:1011B000001500F00BFD0021201500F007FD0BE0ED
:1011C0000848844208D10121C80300F0FFFC002137
:1011D0004FF4004000F0FAFC10BD00000024014074
:1011E00000280140003C0140014600208A6802F0CE
:1011F00004020AB1012000E0002070470146C86CDB
:1012000080B270470246002013680B400BB10120EA
:1012100000E000207047014600208A6802F00802C2
:101220000AB1012000E000207047000030B50246FE
:101230000020002350680F4C20400D790C6844EAD0
:1012400005242043506090680B4C2040D1E90254A3
:101250002C434D7944EA450420439060D06A20F441
:1012600070000C7C641EE4B2234340EA0350D06259
:1012700030BD0000FFFEF0FFFDF7F1FFF0B50446C2
:101280000D4600200021092D11DDE068A5F10A06B8
:1012900006EB4607072606FA07F18843A5F10A067A
:1012A00006EB460603FA06F10843E0600CE020690D
:1012B00005EB4507072606FA07F1884305EB4506C7
:1012C00003FA06F108432061072A0FDA606B561E05
:1012D00006EB86071F2606FA07F18843561E06EB23
:1012E000860605FA06F10843606322E00D2A0FDA4C
:1012F000206BD61F06EB86071F2606FA07F18843E8
:10130000D61F06EB860605FA06F10843206310E0B7
:10131000E06AA2F10D0606EB86071F2606FA07F122
:101320008843A2F10D0606EB860605FA06F108438E
:10133000E062F0BD816841F008018160704721B131
:10134000826842F4A002826003E0826822F4A00274
:1013500082607047816841F004018160704700003D
:1013600000B587B001214FF4017000F01FFC4FF46D
:10137000004000F0FFFB0120ADF8040000208DF8D4
:10138000070001A9284800F056F80220ADF8040033
:1013900000208DF8070001A9234800F04CF8042034
:1013A000ADF8040000208DF8070001A91E4800F0E8
:1013B00042F81E48FFF7EAFE0820ADF804000020BE
:1013C0008DF8070001A9184800F035F81748FFF715
:1013D000DDFE002002908DF80C008DF80D004FF41A
:1013E000602004900020059004208DF8180002A9C8
:1013F0000E48FFF71BFF01210C48FFF7BCFE0B480E
:10140000FFF798FF00BF0948FFF705FF0028FAD152
:101410000648FFF79FFF00BF0448FFF7E5FE0028DE
:10142000FAD107B000BD00000008014000240140CF
:1014300000BFFEE770472DE9F04102460025002677
:10144000002000230024002791F803C00CF00F05B2
:1014500091F803C00CF0100CBCF1000F03D091F810
:1014600002C04CEA050591F800C0BCF1000F31D074
:10147000146800202BE04FF0010C0CFA00F3B1F8D7
:1014800000C00CEA03069E4220D183004FF00F0CEF
:101490000CFA03F7BC4305FA03FC4CEA040491F888
:1014A00003C0BCF1280F06D14FF0010C0CFA00FC70
:1014B000C2F814C00AE091F803C0BCF1480F05D18E
:1014C0004FF0010C0CFA00FCC2F810C0401C0828B8
:1014D000D1D31460B1F800C0BCF1FF0F34DD546803
:1014E00000202EE000F1080C4FF0010808FA0CF380
:1014F000B1F800C00CEA03069E4221D183004FF0F0
:101500000F0C0CFA03F7BC4305FA03FC4CEA040485
:1015100091F803C0BCF1280F05D100F1080C08FABE
:101520000CF8C2F8148091F803C0BCF1480F07D141
:1015300000F1080C4FF0010808FA0CF8C2F810800E
:10154000401C0828CED35460BDE8F081416170474B
:101550000161704710B50446E1B200230122094839
:10156000FFF78CFE01210748FFF7E9FE00BF0221CB
:101570000448FFF747FE0028F9D00248FFF73EFE77
:1015800010BD0000002401402DE9F04107460C4643
:101590000025002608E03846FFF7DCFF054405205B
:1015A00001F0C4FA701CC6B2A642F4DBB5FBF4F03D
:1015B00080B2BDE8F08100BFFEE700BFFEE77047E4
:1015C00070B5002100230F22C47804B3154C2468A1
:1015D00004F4E064C4F5E064210AC1F10403CA40E4
:1015E000447804FA03F184781440214309010E4C35
:1015F0000678A155047804F01F050124AC40057855
:101600006D11AD0005F1E025C5F8004109E0047851
:1016100004F01F050124AC40044D0678761145F80E
:10162000264070BD0CED00E000E400E080E100E049
:1016300002490143024A1160704700000000FA05A8
:101640000CED00E070B5002419E004F1B001C8B25F
:10165000002100F06BF90021084600F067F9002135
:10166000102000F063F9002505E00121002000F0C2
:101670005DF9681CC5B2802DF7DB601CC4B2082C74
:10168000E3DB70BD07E040F2375100BF0A00A1F173
:101690000101FBD1401E0028F5D1704770B5064608
:1016A000002415E004F1B001C8B200F06DF901208A
:1016B00000F06AF9102000F067F9002504E03046D8
:1016C00000F08EF9681CC5B2802DF8DB601CC4B236
:1016D000082CE7DB70BD000008B50121042000F0F4
:1016E00065FA4FF4B870ADF8000003208DF80200E1
:1016F00010208DF8030069463C48FFF79CFE10213E
:101700003A48FFF725FF40213848FFF71FFF3220F6
:10171000FFF7B8FF40213548FFF71AFF0021AE2040
:1017200000F0D0F80021D52000F0CCF80021802076
:1017300000F0C8F80021A82000F0C4F800213F20E4
:1017400000F0C0F80021D32000F0BCF800210846CA
:1017500000F0B8F80021402000F0B4F800218D20FE
:1017600000F0B0F80021142000F0ACF80021202097
:1017700000F0A8F80021022000F0A4F80021A12028
:1017800000F0A0F80021C82000F09CF80021DA2029
:1017900000F098F80021122000F094F80021812038
:1017A00000F090F80021EF2000F08CF80021D92003
:1017B00000F088F80021F12000F084F80021DB20FF
:1017C00000F080F80021402000F07CF80021A420E7
:1017D00000F078F80021A62000F074F80021AF2076
:1017E00000F070F80020FFF759FF08BD0008014025
:1017F00070B504460D4605F1B001C8B2002100F0F5
:1018000095F8102141EA1410002100F08FF804F03F
:101810000F0141F00100002100F088F870BD0000C8
:101820002DE9F04107460E469046A8F12000C5B2CA
:101830007F2F02DD0027B01CC6B231463846FFF7C5
:10184000D7FF002408E004EB05110F4A505C01218A
:1018500000F06CF8601CC4B2082CF4DB701CC1B240
:101860003846FFF7C5FF002409E004EB05110831F5
:10187000054A505C012100F059F8601CC4B2082CE4
:10188000F3DBBDE8F08100001F3900082DE9F041CD
:1018900004460F46154600260EE0AA5D394620464E
:1018A000FFF7BEFF04F10800C4B2782C02DD00246B
:1018B000B81CC7B2701CC6B2A85D0028EDD1BDE847
:1018C000F081000070B504460E462EB14FF48071D1
:1018D0001548FFF73DFE04E04FF480711248FFF712
:1018E00035FE002517E010210F48FFF72FFE04F00A
:1018F000800020B120210C48FFF72AFE03E02021C0
:101900000948FFF723FE10210748FFF721FE600674
:10191000040E681CC5B2082DE5DB4FF48071024847
:10192000FFF716FE70BD00000008014070B50446C8
:101930000E462EB14FF480711248FFF709FE04E005
:101940004FF480710F48FFF701FE002517E01021CA
:101950000C48FFF7FBFD04F0800020B1202109486E
:10196000FFF7F6FD03E020210648FFF7EFFD102109
:101970000448FFF7EDFD6006040E681CC5B2082D93
:10198000E5DB70BD0008014070B50446082569011B
:101990001248FFF7DBFD10211048FFF7D7FD00BF0D
:1019A00016E004F0800020B120210C48FFF7D0FDA4
:1019B00003E020210948FFF7C9FD10210748FFF780
:1019C000C7FD00BF10210548FFF7C0FD6006040EEB
:1019D0002800A5F10101CDB2E3D170BD000801409E
:1019E00070B50446082569011348FFF7B1FD00BF33
:1019F00010211148FFF7AAFD00BF16E004F0800097
:101A000020B120210C48FFF7A3FD03E020210A4864
:101A1000FFF79CFD10210848FFF79AFD00BF102139
:101A20000548FFF793FD6006040E2800A5F10101AB
:101A3000CDB2E3D170BD0000000801402DE9FE4F9A
:101A400004460E464FF000090020029031462068FF
:101A500001F062FD05463548006801F053FB07467A
:101A6000334A344B01F018FB07D20021284601F01D
:101A700017FD00D800254FF001092C48006801F03F
:101A800041FB07462C4A2D4B01F0CCF907D200212F
:101A9000284601F005FC00D80025012002904FF0F7
:101AA0008040216901F030FC2946019001F029FDB8
:101AB0008346616901F052FB8246E16801F024FC33
:101AC00007462946A06801F01FFC019028462169BD
:101AD00001F022FD0090616801F016FC8346184871
:101AE0000168584601F03AFB8246019901F036FB45
:101AF0008046394601F032FB0C490860206960617C
:101B00002561084600680E490860B9F1000F04D04D
:101B10004FF000090B48BDE8FE8F029818B1002075
:101B200002900948F7E701480068F4E770000020D8
:101B30005C8FC2F5285CEF3F9A9999999999C93FB2
:101B40007400002048E17A3FCDCC4C3E2DE9F041B5
:101B500004460D4617461E46DDF81880182120461B
:101B6000FEF780FB25606760A660C4F80C80BDE8C6
:101B7000F081704701460020034A506820F440403D
:101B800008435060704700000010024029B1064A27
:101B9000D2690243044BDA6104E0034AD26982430A
:101BA000014BDA61704700000010024029B1064A7B
:101BB00092690243044B9A6104E0034A92698243AA
:101BC000014B9A61704700000010024029B1064A9B
:101BD000D2680243044BDA6004E0034AD2688243CD
:101BE000014BDA60704700000010024030B5002160
:101BF0000022002400232D4D6D6805F00C0121B159
:101C0000042905D0082923D105E0294D056022E0EB
:101C1000274D05601FE0254D6D6805F47012234DBA
:101C20006D6805F48034022505EB92421CB9214D04
:101C3000554305600BE01D4D6D6805F400351DB181
:101C40001C4D5543056002E0194D5543056002E007
:101C5000174D056000BF00BF144D6D6805F0F00121
:101C60000909154D6B5C0568DD4045600F4D6D68D9
:101C700005F4E061090A104D6B5C4568DD40856044
:101C80000A4D6D6805F46051C90A0B4D6B5C4568DF
:101C9000DD40C560054D6D6805F44041890B074D79
:101CA0006B5CC568B5FBF3F5056130BD0010024003
:101CB00000127A0000093D001E0000202E000020C6
:101CC000704710B500F002F810BD00000CB5002000
:101CD000019000903348006840F48030314908603A
:101CE00000BF3048006800F4003000900198401CAC
:101CF0000190009818B90198B0F5A06FF1D129486A
:101D0000006800F4003010B10120009001E00020D4
:101D100000900098012843D12348006840F010004B
:101D2000214908600846006820F003000860084662
:101D3000006840F0020008601A484068194948608D
:101D40000846406848600846406840F48060486043
:101D50000846406820F47C1048600846406840F41B
:101D6000E81048600846006840F08070086000BFD6
:101D70000C48006800F000700028F9D0094840685D
:101D800020F00300074948600846406840F0020020
:101D9000486000BF0348406800F00C000828F9D1F3
:101DA0000CBD00000010024000200240042808D1B1
:101DB0004FF0E021096941F004014FF0E022116188
:101DC00007E04FF0E021096921F004014FF0E02223
:101DD000116170477047000010B51348006840F06B
:101DE00001001149086008464068104908400E4942
:101DF0004860084600680E4908400B4908600846DC
:101E0000006820F4802008600846406820F4FE0046
:101E100048604FF41F008860FFF753FF4FF00060E9
:101E20000449086010BD0000001002400000FFF8E7
:101E3000FFFFF6FE08ED00E0F0B50C461546002267
:101E40000021068C4FF6FE773E400684028B018C03
:101E50004FF60C7632407E1C06EA03162E433243C0
:101E6000104EB0420ED0104EB0420BD0B0F1804FA9
:101E700008D00E4EB04205D00D4EB04202D00D4EED
:101E8000B04206D14FF6FD76314044F001063143B1
:101E900005E04FF6F576314044F001063143028308
:101EA0000184F0BD002C01400034014000040040DA
:101EB00000080040000C0040F0B50C46154600221A
:101EC00000210026078C4FF6EF7C07EA0C070784F9
:101ED000028B018C4FF6FF7707EA041640F6FF47A6
:101EE0003A404FF6FF7707EA03373A434FF6FF775A
:101EF00007EA05273A43114FB8420ED0104FB842B7
:101F00000BD0B0F1804F08D00E4FB84205D00E4F25
:101F1000B84202D00D4FB84206D14FF6DF773940B4
:101F200046F01007394305E04FF65F77394044F03B
:101F30001007394302830184F0BD0000002C0140EA
:101F4000003401400004004000080040000C004044
:101F5000F0B50C461546002200210026078C4FF6EE
:101F6000FF6C07EA0C070784828B018C4FF6FF7722
:101F700007EA04264FF60C773A404FF6FF7707EA58
:101F800003172F433A43114FB8420ED0104FB842B7
:101F90000BD0B0F1804F08D00E4FB84205D00E4F95
:101FA000B84202D00D4FB84206D14FF6FF57394024
:101FB00046F48077394305E04FF2FF57394044F447
:101FC0008077394382830184F0BD0000002C0140FA
:101FD000003401400004004000080040000C0040B4
:101FE000F0B50C461546002200210026078C4EF65F
:101FF000FF7C07EA0C070784828B018C4FF6FF7782
:1020000007EA043640F6FF473A404FF6FF7707EA03
:1020100005273A434FF6FF7707EA03373A43114F54
:10202000B8420ED0104FB8420BD0B0F1804F08D05C
:102030000E4FB84205D00E4FB84202D00D4FB842F5
:1020400006D14DF6FF77394046F48057394305E015
:1020500047F6FF57394044F480573943828301845F
:10206000F0BD0000002C014000340140000400409D
:1020700000080040000C004070B501212C4800F021
:102080000CFA002852D00121294800F0F7F929491B
:10209000294A128851F8220001F0EEF80646274836
:1020A0000168304601F030F9054601F0C5F884B208
:1020B00021461F4800F067FB21491F4A128851F84A
:1020C000220001F0D9F806461C480168304601F0AC
:1020D0001BF9054601F0B0F884B22146144800F01F
:1020E00054FB1849144A128851F8220001F0C4F830
:1020F000064612480168304601F006F9054601F02F
:102100009BF884B221460A4800F041FB0A48008847
:10211000401C0949088008460088B0F5B47F01D109
:10212000002008800121024800F0A8F970BD0000DD
:10213000002C014010450008380000203400002029
:10214000B04A00085050000830B589B005460C462A
:1021500001210846FFF71AFD01210420FFF726FDA3
:102160000220ADF8200028208DF8230008A921487E
:10217000FFF761F902211F48FFF7E8F9ADF81850A1
:10218000ADF814400020ADF81A00ADF8160005A90E
:102190004FF0804000F02CFB0420ADF8040000203C
:1021A000ADF806000120ADF808000020ADF80A00E7
:1021B000ADF80C0001A94FF0804000F07FF91C2021
:1021C0008DF8100002208DF8110000208DF812000B
:1021D00001208DF8130004A8FFF7F2F90122032172
:1021E000900700F0C1F90121880700F04AF909B011
:1021F00030BD00000008014010B50121880700F043
:102200004CF950B10121880700F038F909480168FC
:102210000948FFF713FC094908600221480700F04C
:102220003CF930B10221480700F028F900200449A8
:10223000088010BD4800002050010020340000201C
:10224000380000207FB505460C4601210846FFF7FF
:102250009DFCADF80850ADF804400020ADF80A0030
:10226000ADF8060001A94FF0804000F0C1FA01224C
:102270001146900700F078F91C208DF8000002202C
:102280008DF8010001208DF802008DF803006846EA
:10229000FFF796F90121880700F0F3F87FBD0000F1
:1022A00070B501212C4800F0F8F8002852D0012127
:1022B000294800F0E3F82949294A128851F82200F8
:1022C00000F0DAFF064627480168304601F01CF8A6
:1022D000054600F0B1FF84B221461F4800F055FAD0
:1022E00021491F4A128851F8220000F0C5FF064616
:1022F0001C480168304601F007F8054600F09CFFD5
:1023000084B22146144800F042FA1849144A12884F
:1023100051F8220000F0B0FF06461248016830462E
:1023200000F0F2FF054600F087FF84B221460A481C
:1023300000F02FFA0A480088401C09490880084626
:102340000088B0F5B47F01D1002008800121024847
:1023500000F094F870BD0000000400401045000833
:102360003800002034000020B04A00085050000817
:1023700030B591B005460C4601210220FFF706FC5E
:1023800001210D20FFF712FC8020ADF8400018203D
:102390008DF8430003208DF8420010A93448FFF760
:1023A0004AF80320ADF8400018208DF843000320C0
:1023B0008DF8420010A92F48FFF73DF80122114681
:1023C0002D4800F0D1F81D208DF8300002208DF846
:1023D00031008DF8320001208DF833000CA8FFF792
:1023E000EFF8ADF83850ADF834400020ADF83A00C1
:1023F000ADF836000DA9204800F0FAF96020ADF8DC
:1024000020000120ADF822000020ADF8280008A926
:10241000194800F0B3F86020ADF810000120ADF8C5
:1024200012000020ADF8180004A9134800F006F9C6
:102430006020ADF800000120ADF802000020ADF8EA
:10244000080069460C4800F053F908210A4800F0DA
:10245000E7F80821084800F041F90821064800F093
:1024600085F90121044800F00CF811B030BD0000DE
:1024700000080140000C014000040040CA430282F1
:10248000704721B1028842F00102028004E0028814
:102490004FF6FE731A400280704730B502460020A6
:1024A00000230024158A05EA0103958905EA010441
:1024B00013B10CB1012000E0002030BD70B505461D
:1024C0000C46244885420ED0234885420BD0B5F1F6
:1024D000804F08D02148854205D02148854202D04E
:1024E0002048854200D100E000BF208850B92389F0
:1024F000A28861882846FFF79FFCE188284600F003
:102500004BF925E0208804280AD12389A288618814
:102510002846FFF7D1FCE188284600F046F917E08D
:10252000208808280AD12389A28861882846FFF7D5
:102530000FFDE188284600F045F909E02389A288CB
:1025400061882846FFF74CFDE188284600F043F9F2
:1025500070BD0000002C0140003401400004004028
:1025600000080040000C00401AB183890B438381AE
:1025700002E083898B4383817047000070B500249B
:1025800000220023058C4FF6EF7635400584028C3F
:102590008388048B48F6FF752C404FF6FF452C408E
:1025A0000D884FF6FF7606EA05252C434FF6DF75BA
:1025B0002A400D8906EA05152A434D8806EA0515C5
:1025C0002A43154DA84202D0144DA8421DD14FF602
:1025D0007F752A404D894FF6FF7606EA05152A4396
:1025E0004FF6BF752A408D8806EA05152A434FF637
:1025F000FF352B404FF2FF752B408D8906EA85058C
:102600002B43CD8906EA85052B4383800483CD883F
:102610000587028470BD0000002C01400034014099
:102620000A460021018B4FF2FF7319404FF6FF73EA
:1026300003EA0223194301837047000070B50024A8
:1026400000220023058C4FF6FF6635400584028C7E
:102650008388848B4FF68F752C404FF6FC752C4089
:102660000D882C434FF6FF552A400D894FF6FF7613
:1026700006EA05252A434D8806EA05252A43154D15
:10268000A84202D0144DA8421DD14FF2FF752A4036
:102690004D894FF6FF7606EA05252A434FF6FF35AA
:1026A0002A408D8806EA05252A434EF6FF752B4001
:1026B0004DF6FF752B408D8906EA05152B43CD8914
:1026C00006EA05152B4383808483CD8885870284A1
:1026D00070BD0000002C0140003401400A4600217A
:1026E000818B4FF6F77319401143818370470000C7
:1026F00070B5002200230024058C4EF6FF7635408D
:102700000584038C8488828B48F6FF752A404FF637
:10271000FF452A400D884FF6FF7606EA05252A4335
:102720004DF6FF752B400D8906EA05352B434D8884
:1027300006EA05352B430B4DA84202D00A4DA842AC
:1027400008D14BF6FF752C408D894FF6FF7606EACF
:1027500085152C4384808283CD88A0F84050038463
:1027600070BD0000002C0140003401400A460021E9
:10277000818B4FF2FF7319404FF6FF7303EA022378
:10278000194381837047818670470187704781872D
:102790007047A0F840107047028B4FF6F3731A4051
:1027A0000283028B0A4302837047028B4FF2FF338E
:1027B0001A400283028B4FF6FF7303EA01231A4388
:1027C00002837047828B4FF6F3731A408283828BA9
:1027D0000A4382837047828B4FF2FF331A40828311
:1027E000828B4FF6FF7303EA01231A4382837047FB
:1027F000002202881D4B98420ED01D4B98420BD0F0
:10280000B0F1804F08D01B4B984205D01A4B98422C
:1028100002D01A4B984204D14FF68F731A404B885E
:102820001A43174B984207D0164B984204D04FF6E4
:10283000FF431A40CB881A4302808B8883850B881C
:1028400003850A4B98420BD0094B984208D00E4B97
:10285000984205D00D4B984202D00D4B984201D1C1
:102860000B7A03860123838270470000002C01400D
:10287000003401400004004000080040000C00400B
:10288000001000400014004000400140004401409E
:102890000048014010B540F225511D4800F04AF8AB
:1028A00010B31B4800F002F9C4B21A48008800F4C3
:1028B0000040C8B91748008800F4804060B10A2C75
:1028C00003D000201349088020E01248008840F41B
:1028D00000401049088019E00D2C06D10D480088F1
:1028E00040F480400B49088010E00A480088C0F39B
:1028F0000D0009490C5407480088401C0549088010
:1029000008460088C72801DD0020088010BD0000AF
:10291000003801401C0000208800002021B182897D
:1029200042F40052828104E082894DF6FF731A401E
:102930008281704770B502460024002300250020E4
:1029400040F66A16B14200D100BFC1F3421501F052
:102950001F03012606FA03F3012D02D196893340A5
:1029600006E0022D02D1168A334001E0968A3340F8
:102970000C12012606FA04F41688344013B10CB187
:10298000012000E0002070BDF0B5034600240026C1
:102990000025002040F66A17B94200D100BF184652
:1029A000C1F3421401F01F06012707FA06F5012CB6
:1029B00001D10C3004E0022C01D1103000E01430C1
:1029C0001AB107682F43076002E00768AF4307604A
:1029D000F0BD00002DE9F04786B005460E46002404
:1029E000A24600BFA1460027B08900B100BF2F4614
:1029F0002C8A4CF6FF700440F08804432C82AC898A
:102A00004EF6F3100440B0883189084371890843B9
:102A10000443AC81AC8A4FF6FF400440B0890443C4
:102A2000AC8201A8FFF7E2F81F48874202D1DDF827
:102A300010A001E0DDF80CA0A88900F4004040B12E
:102A40000AEBCA0000EB0A1031684900B0FBF1F84C
:102A500007E00AEBCA0000EB0A1031688900B0FBFE
:102A6000F1F86420B8FBF0F004012009642101FBB7
:102A70001089A88900F4004040B1322000EBC90061
:102A8000B0FBF1F000F00700044308E0322000EB57
:102A900009106421B0FBF1F000F00F0004432C8119
:102AA00006B0BDE8F0870000003801400146888884
:102AB000C0F30800704700BFFEE7490050EAC1209C
:102AC00018BF04204A0D18BF40F0010040F2FF7209
:102AD000B2EB515F08BF40F00200012808BF05209B
:102AE0007047014600BF704710B56FF00400FFF754
:102AF0005DF90A4800680A49B0FBF1F0094908701D
:102B00000846007800EB4001C1EBC0104FF6FF71A2
:102B100001EAC0000449088010BD00000000002048
:102B200000127A0014000020160000200146114A0D
:102B300012884A434FF0E0235A6100229A611A46F4
:102B4000126942F001021A6100BF4FF0E0221069E1
:102B500000F001021AB100F48032002AF5D04FF0E3
:102B6000E022126922F001024FF0E0231A610022F4
:102B70009A6170471600002000BF054A128802F0D3
:102B80004002002AF9D0C2B2014B1B1D1A807047C7
:102B9000003801401FB54FF07E503D4908604FF4AA
:102BA000A060FEF745FD00214FF47A60FFF7E0FBDF
:102BB00041F61F4142F20F70FFF744FB41F61F41FF
:102BC00042F20F70FFF7C0FAFFF78EFFFEF7C8FB67
:102BD0004FF4E13000F080F8FEF77EFDFEF732FDA5
:102BE00000202C4B1A462C4900902C48FEF7AEFFD3
:102BF0002BA200210846FEF749FE2BA2022100204D
:102C0000FEF744FE43E00A210020FEF7BDFC8246A9
:102C10000A210120FEF7B8FC8346504600F02CFB49
:102C2000804600F06FFA0646204A214B00F036F944
:102C3000044600F0B9F81F490860584600F01CFB34
:102C4000804600F05FFA0646184A194B00F026F954
:102C5000044600F0A9F8184908600D48006800F023
:102C600051FA04460D461448006800F04BFA064637
:102C70000F461048006800F045FA804642460B4671
:102C80000EA0CDE90067CDE90245FDF7ABFABAE742
:102C900034000020CDCC4C3DEC51783F5001002059
:102CA000566F75743A00000049000000B4D934E74B
:102CB0000C684A3F480000204C000020566F757495
:102CC0003A2566202020496F75743A256620202019
:102CD0004D4F443A25660A0010B586B004460121DE
:102CE00044F20400FEF762FF4FF40070ADF81400E8
:102CF00003208DF8160018208DF8170005A91D482F
:102D0000FEF799FB4FF48060ADF8140004208DF8B5
:102D1000170005A91748FEF78EFB25208DF8000047
:102D200002208DF8010000208DF8020001208DF8AE
:102D300003006846FEF744FC01940020ADF808004B
:102D4000ADF80A00ADF80C00ADF810000C20ADF89D
:102D50000E0001A90848FFF73DFE012240F225516F
:102D60000548FFF711FE01210348FFF7D7FD06B024
:102D700010BD0000000801400038014010B50029D6
:102D80000AD00878002807D005487844FDF7F8FDF8
:102D9000002801D0002010BD0248784410BD00007A
:102DA0001A2900001229000021F00042A2F160520D
:102DB000B2F5801F01F0004328BFD2F17F6C0BD920
:102DC0005FEA001C43EAC20242EB507018BF704732
:102DD00028BF20F001007047B2F5801FBCBF184625
:102DE00070474FEA410C1CF5001F02D2084600F064
:102DF00052BB70B500F0FCF800000089FFF7F6BF89
:102E00004FF00040A0F580007047491058BFC1F155
:102E100040415B1058BFC3F140438B42EFF3008049
:102E20007047000051EA030C17D41CF5801F58BFEF
:102E3000BCF5801F00F10680994218BF704708BF9B
:102E40009042704707D711F5801F58BF13F5801FB8
:102E500019D499427047894270471CF5801F08D5E4
:102E6000BCF5801FF7D58B4218BF704708BF824260
:102E700070474FF4001C1CEB410F38BF1CEB430F95
:102E800001D28B42704770B500F0B2F8922449002D
:102E90004FF000514FF08053FFF7B7BFDFF848C144
:102EA00070B51CEA111E1EBF1CEA13159EEA0C0F1A
:102EB00095EA0C0F00F06F8081EA030423EA4C13BB
:102EC0004EEAD47E21EA4C1141F4801143F4801380
:102ED000AE44A1FB024CA0FB0365AEF17F7E361928
:102EE00055EB0C05A1FB034C4CF10003A0FB021CAD
:102EF00016EB0C06654153F10003094218BF46F07A
:102F0000010613F4007F0BD14FEA03314FEA05307D
:102F1000340341EA155140EA16506FF003020AE00B
:102F20004FEAC3214FEAC520F40241EA555140EA75
:102F300056506FF0020202EB2E4201EB025585EA79
:102F4000CE710AD05FEA440C18BF24F0004450F15F
:102F5000000041F1000120EAD47040F2FE7C62459D
:102F600000D270BDA84214BF4FF080444FF04044DF
:102F7000002E08BF0024BEF1806FA8BFA1F1C041A0
:102F8000BDE8704080F282804FF0000001F1C04146
:102F900001F0004170479EEA0C0F0CEA131518BFB0
:102FA00095EA0C0F06D04FF0000081EA030E0EF0F8
:102FB000004170BD00F01CF88900013E00F007B828
:102FC00000F009B84FEA430C5FEA5C5C08D081EA84
:102FD000030100F05BB84FEA410C5FEA5C5CF6D19C
:102FE0004FF00000014970470000FF070000F87F24
:102FF0000EF1020E2EF0030E5EF8046B364205D47D
:10300000012A43EB030515F5001F12D8012841EBF7
:10301000010C1CF5001F0CD80ED14FEAD17C15F520
:10302000001F0CEB4C0C0CF1020C08BF4CEBD37CDA
:1030300004E04FF0080C01E04FEAD37C0CEB4C05A8
:1030400026FA05F606F00706B6F1040C06D20EEBDA
:10305000860CBDE870404CF0010C6047DFE80CF0D6
:10306000090B02024FF000414FF00000A1F50021D2
:1030700070BD19461046012851EB010418BFD4F564
:10308000001484BF002001F0004170BD0808A0F5C5
:1030900000114FEA3101704753EA010C17D41CF5B7
:1030A000801F58BFBCF5801F00F106808B4218BFFF
:1030B000704708BF8242704707D713F5801F58BF7B
:1030C00011F5801F19D48B4270479B4270471CF545
:1030D000801F08D5BCF5801FF7D5994218BF7047EF
:1030E00008BF904270474FF4001C1CEB430F38BFE1
:1030F0001CEB410F01D2994270470FB40CBC03BCCA
:10310000FFF7C1BE43004FEAD30C4FEA3C0C4340EB
:103110001FBF40070CF1605113F0FE4F70471CF0C9
:10312000006F03D100200CF0004170470CF0004309
:1031300043EA507010B540EACC0000F066F900BFD9
:10314000000000924FEA0001FFF7A0BF4FF00041DE
:103150004FF00000A1F500217047000090EA010F38
:1031600048BF81F0004100F1DE81421A3CBF801A65
:1031700089184FEAD0524FF07F4C1CEA410FA2EB66
:10318000D15318BF9CEA026F00F03B804FF0004C17
:103190004CEA00204CEA012121FA03FC10EB0C0C54
:1031A0001ED202F1FF325FEA1C2040EBC25038BF52
:1031B00070471CF07F0F4FEA400C18BFBCF17F4FE7
:1031C00038BF7047C3F12003994008BF20F00100C9
:1031D000BCF17F4F38BF7047A0F1C04000F05BB931
:1031E0004FEA3C00000A40EBC25028BF1CF0FF0F22
:1031F0004FEA400CE6D018BFBCF17F4F38BF704794
:10320000EAE79CEA026F05D010EA5C0F08BF00F005
:103210000040704710B500F0F8F800BF64FBBE3EF8
:10322000401058BFC0F14040491058BFC1F1404163
:103230008142EFF300807047C10DD1F19E0206DBA1
:103240004FEA002343F0004323FA02F070470042A4
:1032500007D54FEA4001B1F1FE4F02D24FF0000016
:10326000704710B500F0D1F84992248000207047D3
:103270006FEA200070470000B0FA80F310FA03F202
:10328000C3F19D030AD0D90501EB1220530638BFC4
:10329000704700F1010008BF20F0010070470000F6
:1032A00050EA010C00F113801CF5000F58BFBCF56B
:1032B000000F01D48842704707D710F5000F58BFA0
:1032C00011F5000F15D488427047894270471CF5EC
:1032D000000F04D5BCF5000FF7D5814270474FF0C1
:1032E000807C1CEB400F38BF1CEB410F01D28142A8
:1032F000704710B500F089F8922449004FF0005053
:103300004FF08051FFF78CBF4FF47F0C1CEAD012B6
:103310001EBF1CEAD11392EA0C0F93EA0C0F00F0C7
:10332000478090EA010F48BF42F480724FF0004C92
:103330004CEA00204CEA012102EB0302A0FB01133E
:10334000A2F50002002918BF43F001035B0028BF6B
:103350004FEA330342EB22425FEA132C4CEBC2509C
:103360002EBFBCEB436FB2F57C0F70474FEA036C86
:10337000BCF1004F08BF20F00100B2F57C0F38BF50
:1033800070470BD582F0FF0212F5803FC8BF70472F
:1033900000F1C040D8BF00F00040704700F5000CBD
:1033A0005FEA4C0C48BF7047B0F1C04000F073B802
:1033B00090EA010F0CEAD11348BF42F480726245D3
:1033C00038BF634504D280EA010000F00040704736
:1033D00010B500F01AF800BF8900013E00F007B8F0
:1033E00000F009B85FEA410C5FEA1C6C08D080EA83
:1033F000010000F050B85FEA400C5FEA1C6CF6D1A7
:103400004FF00040A0F5800070470EF1020E2EF044
:10341000030E5EF8044B244204D44FEA4102B2F199
:103420007F4F11D84FEA4003B3F17F4F0CD80ED134
:103430004FEAD07CB2F17F4F0CEB4C0C0CF1020C3C
:1034400008BF4CEBD17C04E04FF0080C01E04FEAE0
:10345000D17C0CEB4C0324FA03F404F00704B4F120
:10346000040C06D20EEB840CBDE810404CF0010CAD
:103470006047DFE80CF0070802024FF00040A0F5BB
:10348000800010BD0846420018BFD2F1807288BF8C
:1034900000F0004010BDFF2141EAD050C005704748
:1034A00051EA000C00F113801CF5000F58BFBCF569
:1034B000000F01D48142704707D711F5000F58BFA4
:1034C00010F5000F15D481427047894270471CF5F2
:1034D000000F04D5BCF5000FF7D5884270474FF0B8
:1034E000807C1CEB410F38BF1CEB400F01D288429F
:1034F000704780EA010081EA000180EA0100FFF7DD
:10350000F8BE80F0004090EA010F7FF52EAE81F00A
:10351000004100F008B8000090EA010F48BF81F0B8
:1035200000413FF522AE421A04D882F00042A0EBDF
:10353000020011444FEAD0524FF07F4C1CEA410F79
:10354000A2EBD15318BF9CEA026F4AD04FF0004C57
:103550004CEA00204CEA012121FA03FCB0EB0C0CF0
:103560000FD412F0FE0F36D05FEA4C001DD50012CA
:1035700040EBC25038BF70471CF03F0F18BF704778
:103580000BE0A2F101025FEA1C2040EBC25038BF01
:1035900070471CF07F0F18BF7047C3F1200399409C
:1035A00014BF401E20F00100704780084FEA12232C
:1035B00008BF7047B0FA80FCA2EB0C02CCF1280CDB
:1035C00060FA0CF093EA122F04BF00EBC250704770
:1035D0004FEAC3707047130A5FEADC1008BF7047F8
:1035E000F6E79CEA026F04D010EA5C0F08BF0020E7
:1035F000704710B5FFF709FF40DFF63E81F000404D
:103600007047FCF731BF0000000000000000002FF1
:10361000000000000700070000147F147F1400243E
:103620002A7F2A120062640813230036495522506B
:1036300000000503000000001C22410000004122A0
:103640001C000014083E08140008083E080800008A
:1036500000A060000808080808080000606000007A
:10366000002010080402003E5149453E0000427F00
:103670004000004261514946002141454B3100184C
:1036800014127F10002745454539003C4A4949300E
:1036900000017109050300364949493600064949C8
:1036A000291E000036360000000056360000081CB7
:1036B0002A4908080014141414140808492A1C087C
:1036C00000020151090600324959513E007C121195
:1036D000127C007F49494936003E41414122007F2A
:1036E0004141221C007F49494941007F09090901E4
:1036F000003E4149497A007F0808087F0000417F69
:103700004100002040413F01007F08142241007F1A
:1037100040404040007F020C027F007F0408107F81
:10372000003E4141413E007F09090906003E4151EA
:10373000215E007F091929460046494949310001A7
:10374000017F0101003F4040403F001F2040201FFB
:10375000003F4038403F00631408146300070870BE
:10376000080700615149454300007F414100005571
:103770002A552A55000041417F000402FF0204003F
:10378000002040FF402000000102040000205454AB
:103790005478007F4844443800384444442000387A
:1037A0004444487F00385454541800087E090102EC
:1037B0000018A4A4A47C007F080404780000447DC1
:1037C0004000004080847D00007F102844000000FD
:1037D000417F4000007C04180478007C08040478D1
:1037E00000384444443800FC2424241800182424BD
:1037F00018FC007C080404080048545454200004B9
:103800003F444020003C4040207C001C2040201CC5
:10381000003C4030403C004428102844001CA0A03C
:10382000A07C004464544C44141414141414BAE3DB
:10383000CDD8BFC6BCBCB5E7B5F7D0A3D7BC00E0B8
:1038400000FF102002F29292929292F2020000FF88
:103850000000404F44444444444F401010FF109037
:10386000040484E49C8484840444827F010402016F
:10387000FF40404040FF0024A4FEA3220022CC00D1
:1038800000FF0000000601FF00010404040404FF1F
:103890000202021010FF109008888888FF8888882C
:1038A0000844827F01808040432C1028468180009C
:1038B000F888888888FF88888888F80000001F08B2
:1038C0000808087F888888889F80F042CC0000FE26
:1038D000829292FE929282FE00003F10887F001E2C
:1038E0001212125E807F0010D0FF901080482809CD
:1038F0000E082848880300FF00018080432C102C0C
:10390000438080020CE04020F84F4849FE48484878
:1039100008047F000000FF2222223F2222222000F2
:103920000000000000000000000000000000000097
:103930000000F8000000000000003330000000002C
:10394000100C06100C0600000000000000000040F3
:10395000C07840C0784000043F04043F04040000E5
:103960007088FC08300000001820FF211E0000F0C5
:1039700008F000E018000000211C031E211E0000BA
:10398000F00888700000001E212324192721101040
:10399000160E000000000000000000000000000003
:1039A0000000E0180402000000000718204000009A
:1039B000020418E00000000040201807000000404A
:1039C0004080F0804040000202010F01020200002E
:1039D0000000F0000000000101011F0101010000D2
:1039E0000000000000000080B07000000000000037
:1039F00000000000000000000101010101010100C0
:103A00000000000000000000303000000000000056
:103A1000000000806018040060180601000000002B
:103A2000E010080810E000000F102020100F000028
:103A30001010F8000000000020203F2020000000AF
:103A40007008080888700000302824222130000007
:103A5000300888884830000018202020110E00000F
:103A600000C02010F8000000070424243F240000B8
:103A7000F80888880808000019212020110E00008D
:103A8000E0108888180000000F112020110E00009F
:103A9000380808C83808000000003F000000000097
:103AA00070880808887000001C222121221C000058
:103AB000E010080810E0000000312222110F000081
:103AC0000000C0C000000000000030300000000016
:103AD0000000800000000000008060000000000086
:103AE000008040201008000001020408102000405F
:103AF000404040404040000404040404040400002A
:103B0000081020408000000020100804020100007E
:103B10007048080808F0000000003036010000C0BE
:103B200030C828E810E0000718272423140B0000F1
:103B300000C038E0000000203C23020227382008A3
:103B4000F8888888700000203F202020110E00C0D7
:103B5000300808080838000718202020100800083E
:103B6000F808080810E000203F202020100F00086F
:103B7000F88888E8081000203F202023201800083B
:103B8000F88888E8081000203F200003000000C0EB
:103B90003008080838000007182020221E020008FC
:103BA000F808000008F808203F210101213F20000B
:103BB0000808F8080800000020203F20200000002E
:103BC000000808F8080800C08080807F0000000816
:103BD000F888C028180800203F2001263820000857
:103BE000F8080000000000203F20202020300008BE
:103BF000F8F800F8F80800203F003F003F200008D8
:103C0000F830C00008F808203F200007183F00E007
:103C10001008080810E0000F10202020100F0008E6
:103C2000F808080808F000203F210101010000E029
:103C30001008080810E0000F18242438504F00081E
:103C4000F8888888887000203F2000030C3020000E
:103C5000708808080838000038202121221C00182C
:103C60000808F8080818000000203F20000000089D
:103C7000F808000008F808001F202020201F000876
:103C800078880000C83808000007380E010000F8E6
:103C90000800F80008F800033C0700073C03000890
:103CA0001868808068180820302C03032C30200806
:103CB00038C800C83808000000203F20000000106D
:103CC000080808C8380800203826212020180000DD
:103CD0000000FE020202000000007F4040400000A1
:103CE0000C30C000000000000000010638C00000D9
:103CF000020202FE000000004040407F0000000081
:103D000000040202020400000000000000000000A5
:103D100000000000000000808080808080808000A3
:103D2000020204000000000000000000000000008B
:103D3000008080808000000019242222223F200879
:103D4000F8008080000000003F112020110E0000CC
:103D500000008080800000000E1120202011000053
:103D60000000808088F800000E112020103F200005
:103D700000808080800000001F2222222213000089
:103D80008080F0888888180020203F2020000000D4
:103D900000808080808000006B9494949360000881
:103DA000F8008080800000203F210000203F20009C
:103DB000809898000000000020203F202000000094
:103DC0000000809898000000C08080807F0000087C
:103DD000F8000080808000203F24022D3020000069
:103DE0000808F8000000000020203F20200000808C
:103DF00080808080808000203F20003F20003F8026
:103E000080008080800000203F210000203F2000B3
:103E100000808080800000001F202020201F008064
:103E20008000808000000080FFA12020110E000093
:103E300000008080808000000E112020A0FF808084
:103E40008080008080800020203F21200001000031
:103E50000080808080800000332424242419000006
:103E60008080E0808000000000001F202000008093
:103E700080000000808000001F202020103F208054
:103E80008080000080808000010E300806010080E4
:103E9000800080008080800F300C030C300F000009
:103EA000808000808080000020312E0E3120008034
:103EB0008080000080808080818E70180601000064
:103EC000808080808080000021302C222130000002
:103ED000000000807C020200000000003F40400023
:103EE000000000FF00000000000000FF00000000D4
:103EF00002027C800000000040403F000000000003
:103F000000000000008080000000000000010100AF
:103F100000000000000000000000000000000000A1
:103F20000000000000000000000000000000000091
:103F30000000000000000000000000000000001869
:103F40001C3C3C7CFC3C3C7CD80000000000000099
:103F50000000000000000000000000000000000061
:103F60000000000000000000000000000000000051
:103F70000000000000000000000000000000000041
:103F80000000000000000000000000000000000031
:103F90000000000000000000000000000000000021
:103FA000000000000000000000000000002060E0B1
:103FB000C0C0C0C080C08000000000000000000041
:103FC00000000000FF8040201F00000000000000F3
:103FD00000000000000000000000000000000000E1
:103FE00000000080C08080C0C0C0C06060000000D1
:103FF00000000000000000000000000000000000C1
:1040000000000000000000000000000000000000B0
:1040100000000000000000000000000000000000A0
:104020000000000000000000000000000000000090
:1040300000010119FFFFFFFF73F2F6E4E4ECC8C8CA
:10404000C0C080F0FFF0E0F0D0D8FCFEFFFFFFFF23
:10405000FCC0C0C0E0E0F0F0E0C0C0C4E4E4E2F2C4
:10406000727BFFFFFFFF190101010000000000004B
:104070000000000000000000000000000000000040
:104080000000000000000000000000000000000030
:1040900000000000000000000000008080808080A0
:1040A0008080C040C0F0F8F0F0E060F0F070707018
:1040B000703030303FBF9F98988888C9C9C3C3E724
:1040C000EFFFFFFFFFFFFFFFFFFFFFFFFFFFFFFF10
:1040D000FFFFFFFFFFFFFFFFFFFFF7E3E3C1C9C8DB
:1040E000C8C8999F9F9FB838383030307070707052
:1040F00070F0F8F8F8F0E0604040404040C0C0C0C8
:1041000080808080808080800000000000000006A9
:104110000202020203030301010101010101010185
:1041200000002070FFFFFFFFFFFFFE7E3E3E3E3E91
:104130003F1F1F1F1F1F1F1F0F0F0F0F0F0F070303
:104140000101010103878F8F8F87BFFFFFFFFFFFF3
:10415000FFDF87878F878103030101010107070FB5
:104160000F0F0F1F1F1F1F1F1F1F1F3F3F3E3E3CF4
:104170007FFFFFFFFFFFFF3810000000000000007E
:104180000000000000010101010101010101010025
:10419000000000000000000000000000000000001F
:1041A0000000000003FFFFFFFF1F010000000000F0
:1041B00000000000000000000000000000000000FF
:1041C00000000000003F3F3F3F3F3F7FFFFFFFFFFA
:1041D000FFFFFFFFFFFFFF1F0000000000000000C7
:1041E00000000000000000000000000000000000CF
:1041F0000003FFFFFFFF03000000000000000000BD
:1042000000000000000000000000000000000000AE
:10421000000000000000000000000000000000009E
:10422000000000000007FFFFFF000000000000008A
:10423000000000000000000000000000000000007E
:10424000000000000000000000000000000000006E
:10425000000000000000000000000000000000005E
:10426000000000000000000000000000000000004E
:10427000000003FFFF03000000000000000000003A
:10428000000000000000000000000000000000002E
:10429000000000000000000000000000000000001E
:1042A000000000000000F0FFFFF0C0000000000070
:1042B00000000000000000000000000000000000FE
:1042C00000000000000000000000000000000000EE
:1042D00000000000000000000000000000000000DE
:1042E00000000000000000000000000000000000CE
:1042F00000007C7F7F7800000000000000000000CC
:1043000000000000000000000000000000000000AD
:1043100000F888888888FF88888888F8000000006E
:10432000000000000000000000000000000000008D
:10433000001F080808087F888888889F80F0000090
:10434000000000000000000000000000000000006D
:1043500000FE0282828282FA8282828282020000CF
:1043600000000000000000000000000000000080CD
:10437000601F40404040407F404044584040000063
:10438000000000000000000000000000000000002D
:1043900000F888888888FF88888888F800000000EE
:1043A000000000000000000000000000000000000D
:1043B000001F080808087F888888889F80F0000010
:1043C00000000000000000000000000000000010DD
:1043D00060028C004464544D46445464C40400009C
:1043E00000000000000000000000000000000004C9
:1043F000047E0180403E0000FE00007E80E0000060
:10440000000000000000000000000000000000406C
:104410004042CC0040A09E8282829EA020200000CC
:10442000000000000000000000000000000000008C
:1044300000003F908840432C1028464180800000B7
:10444000000000000000000000000000000000105C
:104450000C4444444445C64444444444140C0000C1
:1044600000000000000000000000000000000080CC
:1044700040201E2040407F444444444440400000CB
:10448000000000000000000000000000000000101C
:1044900060028C00FE02F202FE00F800FF00000045
:1044A0000000000000000000000000000000000408
:1044B000047E018047300F10270047807F000000F6
:1044C00000000000000000000000000000000020CC
:1044D0002020BEAAAAAAAAAAAAAABE20202000001A
:1044E00000000000000000000000000000000000CC
:1044F0008080AFAAAAAAFFAAAAAAAF808000000063
:1045000000000000000000000000000000000000AB
:10451000D0070000F1070000120800003308000077
:10452000550800007608000097080000B808000051
:10453000D8080000F90800001A0900003B09000033
:104540005B0900007B0900009C090000BC09000019
:10455000DC090000FC0900001B0A00003B0A000007
:104560005A0A0000790A0000980A0000B60A000002
:10457000D50A0000F30A0000110B00002F0B000009
:104580004C0B0000690B0000860B0000A30B000021
:10459000BF0B0000DB0B0000F60B0000120C00004C
:1045A0002D0C0000470C0000620C00007C0C000089
:1045B000950C0000AF0C0000C70C0000E00C0000E0
:1045C000F80C0000100D0000270D00003E0D00004B
:1045D000540D00006A0D00007F0D0000950D0000D5
:1045E000A90D0000BD0D0000D10D0000E40D00007C
:1045F000F70D0000090E00001B0E00002D0E00003C
:104600003D0E00004E0E00005E0E00006D0E00001C
:104610007C0E00008A0E0000980E0000A50E00001F
:10462000B20E0000BE0E0000C90E0000D40E000045
:10463000DF0E0000E90E0000F20E0000FB0E00008D
:10464000040F00000B0F0000120F0000190F0000F4
:104650001F0F0000250F00002A0F00002E0F000082
:10466000320F0000350F0000370F0000390F000037
:104670003B0F00003C0F00003C0F00003C0F00000F
:104680003B0F0000390F0000370F0000350F00000E
:10469000320F00002E0F00002A0F0000250F00002F
:1046A0001F0F0000190F0000120F00000B0F000079
:1046B000040F0000FB0E0000F20E0000E90E0000E7
:1046C000DF0E0000D40E0000C90E0000BE0E000078
:1046D000B20E0000A50E0000980E00008A0E000029
:1046E0007C0E00006D0E00005E0E00004E0E0000FD
:1046F0003D0E00002D0E00001B0E0000090E0000F4
:10470000F70D0000E40D0000D10D0000BD0D00000C
:10471000A90D0000950D00007F0D00006A0D00003E
:10472000540D00003E0D0000270D0000100D00008C
:10473000F80C0000E00C0000C70C0000AF0C0000FB
:10474000950C00007C0C0000620C0000470C00007F
:104750002D0C0000120C0000F60B0000DB0B00001B
:10476000BF0B0000A30B0000860B0000690B0000CC
:104770004C0B00002F0B0000110B0000F30A00008F
:10478000D50A0000B60A0000980A0000790A000065
:104790005A0A00003B0A00001B0A0000FC09000046
:1047A000DC090000BC0900009C0900007B09000036
:1047B0005B0900003B0900001A090000F90800002D
:1047C000D8080000B808000097080000760800002C
:1047D000550800003308000012080000F10700002F
:1047E000D0070000AF0700008E0700006D07000033
:1047F0004B0700002A07000009070000E806000038
:10480000C8060000A7060000860600006506000036
:10481000450600002506000004060000E40500002F
:10482000C4050000A4050000850500006505000022
:10483000460500002705000008050000EA04000006
:10484000CB040000AD0400008F04000071040000E0
:1048500054040000370400001A040000FD030000A7
:10486000E1030000C5030000AA0300008E0300005E
:1048700073030000590300003E03000024030000FE
:104880000B030000F1020000D9020000C00200008A
:10489000A8020000900200007902000062020000FD
:1048A0004C02000036020000210200000B02000052
:1048B000F7010000E3010000CF010000BC0100008F
:1048C000A9010000970100008501000073010000AC
:1048D00063010000520100004201000033010000AA
:1048E000240100001601000008010000FB00000088
:1048F000EE000000E2000000D7000000CC00000045
:10490000C1000000B7000000AE000000A5000000DC
:104910009C000000950000008E0000008700000051
:10492000810000007B0000007600000072000000A3
:104930006E0000006B0000006900000067000000CE
:1049400065000000640000006400000064000000D6
:104950006500000067000000690000006B000000B7
:104960006E00000072000000760000007B00000076
:1049700081000000870000008E000000950000000C
:104980009C000000A5000000AE000000B700000081
:10499000C1000000CC000000D7000000E2000000D1
:1049A000EE000000FB0000000801000016010000FE
:1049B0002401000033010000420100005201000008
:1049C00063010000730100008501000097010000F1
:1049D000A9010000BC010000CF010000E3010000BC
:1049E000F70100000B020000210200003602000067
:1049F0004C020000620200007902000090020000F8
:104A0000A8020000C0020000D9020000F10200006C
:104A10000B030000240300003E03000059030000C4
:104A2000730300008E030000AA030000C50300000A
:104A3000E1030000FD0300001A0400003704000039
:104A400054040000710400008F040000AD04000055
:104A5000CB040000EA040000080500002705000060
:104A6000460500006505000085050000A40500005E
:104A7000C4050000E405000004060000250600004F
:104A8000450600006506000086060000A706000037
:104A9000C8060000E8060000090700002A07000019
:104AA0004B0700006D0700008E070000AF070000F5
:104AB0003D0E00002D0E00001B0E0000090E000030
:104AC000F70D0000E40D0000D10D0000BD0D000049
:104AD000A90D0000950D00007F0D00006A0D00007B
:104AE000540D00003E0D0000270D0000100D0000C9
:104AF000F80C0000E00C0000C70C0000AF0C000038
:104B0000950C00007C0C0000620C0000470C0000BB
:104B10002D0C0000120C0000F60B0000DB0B000057
:104B2000BF0B0000A30B0000860B0000690B000008
:104B30004C0B00002F0B0000110B0000F30A0000CB
:104B4000D50A0000B60A0000980A0000790A0000A1
:104B50005A0A00003B0A00001B0A0000FC09000082
:104B6000DC090000BC0900009C0900007B09000072
:104B70005B0900003B0900001A090000F908000069
:104B8000D8080000B8080000970800007608000068
:104B9000550800003308000012080000F10700006B
:104BA000D0070000AF0700008E0700006D0700006F
:104BB0004B0700002A07000009070000E806000074
:104BC000C8060000A7060000860600006506000073
:104BD000450600002506000004060000E40500006C
:104BE000C4050000A405000085050000650500005F
:104BF000460500002705000008050000EA04000043
:104C0000CB040000AD0400008F040000710400001C
:104C100054040000370400001A040000FD030000E3
:104C2000E1030000C5030000AA0300008E0300009A
:104C300073030000590300003E030000240300003A
:104C40000B030000F1020000D9020000C0020000C6
:104C5000A802000090020000790200006202000039
:104C60004C02000036020000210200000B0200008E
:104C7000F7010000E3010000CF010000BC010000CB
:104C8000A9010000970100008501000073010000E8
:104C900063010000520100004201000033010000E6
:104CA000240100001601000008010000FB000000C4
:104CB000EE000000E2000000D7000000CC00000081
:104CC000C1000000B7000000AE000000A500000019
:104CD0009C000000950000008E000000870000008E
:104CE000810000007B0000007600000072000000E0
:104CF0006E0000006B00000069000000670000000B
:104D00006500000064000000640000006400000012
:104D10006500000067000000690000006B000000F3
:104D20006E00000072000000760000007B000000B2
:104D300081000000870000008E0000009500000048
:104D40009C000000A5000000AE000000B7000000BD
:104D5000C1000000CC000000D7000000E20000000D
:104D6000EE000000FB00000008010000160100003A
:104D70002401000033010000420100005201000044
:104D8000630100007301000085010000970100002D
:104D9000A9010000BC010000CF010000E3010000F8
:104DA000F70100000B0200002102000036020000A3
:104DB0004C02000062020000790200009002000034
:104DC000A8020000C0020000D9020000F1020000A9
:104DD0000B030000240300003E0300005903000001
:104DE000730300008E030000AA030000C503000047
:104DF000E1030000FD0300001A0400003704000076
:104E000054040000710400008F040000AD04000091
:104E1000CB040000EA04000008050000270500009C
:104E2000460500006505000085050000A40500009A
:104E3000C4050000E405000004060000250600008B
:104E4000450600006506000086060000A706000073
:104E5000C8060000E8060000090700002A07000055
:104E60004B0700006D0700008E070000AF07000031
:104E7000D0070000F107000012080000330800000E
:104E8000550800007608000097080000B8080000E8
:104E9000D8080000F90800001A0900003B090000CA
:104EA0005B0900007B0900009C090000BC090000B0
:104EB000DC090000FC0900001B0A00003B0A00009E
:104EC0005A0A0000790A0000980A0000B60A000099
:104ED000D50A0000F30A0000110B00002F0B0000A0
:104EE0004C0B0000690B0000860B0000A30B0000B8
:104EF000BF0B0000DB0B0000F60B0000120C0000E3
:104F00002D0C0000470C0000620C00007C0C00001F
:104F1000950C0000AF0C0000C70C0000E00C000076
:104F2000F80C0000100D0000270D00003E0D0000E1
:104F3000540D00006A0D00007F0D0000950D00006B
:104F4000A90D0000BD0D0000D10D0000E40D000012
:104F5000F70D0000090E00001B0E00002D0E0000D2
:104F60003D0E00004E0E00005E0E00006D0E0000B3
:104F70007C0E00008A0E0000980E0000A50E0000B6
:104F8000B20E0000BE0E0000C90E0000D40E0000DC
:104F9000DF0E0000E90E0000F20E0000FB0E000024
:104FA000040F00000B0F0000120F0000190F00008B
:104FB0001F0F0000250F00002A0F00002E0F000019
:104FC000320F0000350F0000370F0000390F0000CE
:104FD0003B0F00003C0F00003C0F00003C0F0000A6
:104FE0003B0F0000390F0000370F0000350F0000A5
:104FF000320F00002E0F00002A0F0000250F0000C6
:105000001F0F0000190F0000120F00000B0F00000F
:10501000040F0000FB0E0000F20E0000E90E00007D
:10502000DF0E0000D40E0000C90E0000BE0E00000E
:10503000B20E0000A50E0000980E00008A0E0000BF
:105040007C0E00006D0E00005E0E00004E0E000093
:105050006301000052010000420100003301000022
:10506000240100001601000008010000FB00000000
:10507000EE000000E2000000D7000000CC000000BD
:10508000C1000000B7000000AE000000A500000055
:105090009C000000950000008E00000087000000CA
:1050A000810000007B00000076000000720000001C
:1050B0006E0000006B000000690000006700000047
:1050C000650000006400000064000000640000004F
:1050D0006500000067000000690000006B00000030
:1050E0006E00000072000000760000007B000000EF
:1050F00081000000870000008E0000009500000085
:105100009C000000A5000000AE000000B7000000F9
:10511000C1000000CC000000D7000000E200000049
:10512000EE000000FB000000080100001601000076
:105130002401000033010000420100005201000080
:105140006301000073010000850100009701000069
:10515000A9010000BC010000CF010000E301000034
:10516000F70100000B0200002102000036020000DF
:105170004C02000062020000790200009002000070
:10518000A8020000C0020000D9020000F1020000E5
:105190000B030000240300003E030000590300003D
:1051A000730300008E030000AA030000C503000083
:1051B000E1030000FD0300001A04000037040000B2
:1051C00054040000710400008F040000AD040000CE
:1051D000CB040000EA0400000805000027050000D9
:1051E000460500006505000085050000A4050000D7
:1051F000C4050000E40500000406000025060000C8
:10520000450600006506000086060000A7060000AF
:10521000C8060000E8060000090700002A07000091
:105220004B0700006D0700008E070000AF0700006D
:10523000D0070000F107000012080000330800004A
:10524000550800007608000097080000B808000024
:10525000D8080000F90800001A0900003B09000006
:105260005B0900007B0900009C090000BC090000EC
:10527000DC090000FC0900001B0A00003B0A0000DA
:105280005A0A0000790A0000980A0000B60A0000D5
:10529000D50A0000F30A0000110B00002F0B0000DC
:1052A0004C0B0000690B0000860B0000A30B0000F4
:1052B000BF0B0000DB0B0000F60B0000120C00001F
:1052C0002D0C0000470C0000620C00007C0C00005C
:1052D000950C0000AF0C0000C70C0000E00C0000B3
:1052E000F80C0000100D0000270D00003E0D00001E
:1052F000540D00006A0D00007F0D0000950D0000A8
:10530000A90D0000BD0D0000D10D0000E40D00004E
:10531000F70D0000090E00001B0E00002D0E00000E
:105320003D0E00004E0E00005E0E00006D0E0000EF
:105330007C0E00008A0E0000980E0000A50E0000F2
:10534000B20E0000BE0E0000C90E0000D40E000018
:10535000DF0E0000E90E0000F20E0000FB0E000060
:10536000040F00000B0F0000120F0000190F0000C7
:105370001F0F0000250F00002A0F00002E0F000055
:10538000320F0000350F0000370F0000390F00000A
:105390003B0F00003C0F00003C0F00003C0F0000E2
:1053A0003B0F0000390F0000370F0000350F0000E1
:1053B000320F00002E0F00002A0F0000250F000002
:1053C0001F0F0000190F0000120F00000B0F00004C
:1053D000040F0000FB0E0000F20E0000E90E0000BA
:1053E000DF0E0000D40E0000C90E0000BE0E00004B
:1053F000B20E0000A50E0000980E00008A0E0000FC
:105400007C0E00006D0E00005E0E00004E0E0000CF
:105410003D0E00002D0E00001B0E0000090E0000C6
:10542000F70D0000E40D0000D10D0000BD0D0000DF
:10543000A90D0000950D00007F0D00006A0D000011
:10544000540D00003E0D0000270D0000100D00005F
:10545000F80C0000E00C0000C70C0000AF0C0000CE
:10546000950C00007C0C0000620C0000470C000052
:105470002D0C0000120C0000F60B0000DB0B0000EE
:10548000BF0B0000A30B0000860B0000690B00009F
:105490004C0B00002F0B0000110B0000F30A000062
:1054A000D50A0000B60A0000980A0000790A000038
:1054B0005A0A00003B0A00001B0A0000FC09000019
:1054C000DC090000BC0900009C0900007B09000009
:1054D0005B0900003B0900001A090000F908000000
:1054E000D8080000B80800009708000076080000FF
:1054F000550800003308000012080000F107000002
:10550000D0070000AF0700008E0700006D07000005
:105510004B0700002A07000009070000E80600000A
:10552000C8060000A7060000860600006506000009
:10553000450600002506000004060000E405000002
:10554000C4050000A40500008505000065050000F5
:10555000460500002705000008050000EA040000D9
:10556000CB040000AD0400008F04000071040000B3
:1055700054040000370400001A040000FD0300007A
:10558000E1030000C5030000AA0300008E03000031
:1055900073030000590300003E03000024030000D1
:1055A0000B030000F1020000D9020000C00200005D
:1055B000A8020000900200007902000062020000D0
:1055C0004C02000036020000210200000B02000025
:1055D000F7010000E3010000CF010000BC01000062
:1055E000A90100009701000085010000730100007F
:1055F00002400000000000A0000000000540000084
:10560000000000C8000000000C4000000000409CAA
:1056100000000000194000000020BCBE0000000097
:1056200034400000BFC91B8E00000004B5400000DC
:10563000504BCFD06607E2CF010000006C41000064
:105640003E8251AADFEEA73401000000D9420000DB
:10565000DCB5A0E23A301F97FFFFFFFFB445000022
:10566000FD25A0C8E9A3C14FFFFFFFFFFF3F0000DA
:105670000000008000000000FF3F000000000080EC
:1056800000000000C0560008000000208800000054
:105690002801000848570008880000207007000013
:1056A000440100081C00000043000000F8FFFFFF59
:1056B0000C0000000E0000000F0000002E00000093
:1056C00000A24A04000000000000000001020304E0
:1056D00006070809000000000000000000000000AC
:1056E0000000010203040102030406070809020482
:1056F000060800000000000000000000000000009C
:105700000000000000000000000000000000000099
:105710000000000000000000000000000000000089
:105720000000000000000000000000000000000079
:105730000000000000000000000000000000000069
:08574000000000000000000061
:04000005080001A14D
:00000001FF
